:020000040000fa
:080000000002040000000000f2
:020000040000fa
:04000800cc02000026
:020000040000fa
:04000c00cc02000022
:020000040000fa
:04001000cc0200001e
:020000040000fa
:04001400cc0200001a
:020000040000fa
:04001800cc02000016
:020000040000fa
:04001c00cc02000012
:020000040000fa
:04002000cc0200000e
:020000040000fa
:04002400cc0200000a
:020000040000fa
:04002800cc02000006
:020000040000fa
:04002c00cc02000002
:020000040000fa
:04003000cc020000fe
:020000040000fa
:04003400cc020000fa
:020000040000fa
:04003800cc020000f6
:020000040000fa
:04003c00cc020000f2
:020000040000fa
:04004000cc020000ee
:020000040000fa
:04004400cc020000ea
:020000040000fa
:04004800cc020000e6
:020000040000fa
:04004c00cc020000e2
:020000040000fa
:04005000cc020000de
:020000040000fa
:04005400cc020000da
:020000040000fa
:04005800cc020000d6
:020000040000fa
:04005c00cc020000d2
:020000040000fa
:04006000cc020000ce
:020000040000fa
:04006400cc020000ca
:020000040000fa
:04006800cc020000c6
:020000040000fa
:04006c00cc020000c2
:020000040000fa
:04007000cc020000be
:020000040000fa
:04007400cc020000ba
:020000040000fa
:04007800cc020000b6
:020000040000fa
:04007c00cc020000b2
:020000040000fa
:04008000cc020000ae
:020000040000fa
:04008400cc020000aa
:020000040000fa
:04008800cc020000a6
:020000040000fa
:04008c00cc020000a2
:020000040000fa
:04009000cc0200009e
:020000040000fa
:04009400cc0200009a
:020000040000fa
:04009800cc02000096
:020000040000fa
:04009c00cc02000092
:020000040000fa
:0400a000cc0200008e
:020000040000fa
:0400a400cc0200008a
:020000040000fa
:0400a800cc02000086
:020000040000fa
:0400ac00cc02000082
:020000040000fa
:0400b000cc0200007e
:020000040000fa
:0400b400cc0200007a
:020000040000fa
:0400b800cc02000076
:020000040000fa
:0400bc00cc02000072
:020000040000fa
:0400c000cc0200006e
:020000040000fa
:0400c400cc0200006a
:020000040000fa
:0400c800cc02000066
:020000040000fa
:0400cc00cc02000062
:020000040000fa
:0400d000cc0200005e
:020000040000fa
:0400d400cc0200005a
:020000040000fa
:0400d800cc02000056
:020000040000fa
:0400dc00cc02000052
:020000040000fa
:0400e000cc0200004e
:020000040000fa
:0400e400cc0200004a
:020000040000fa
:0400e800cc02000046
:020000040000fa
:0400ec00cc02000042
:020000040000fa
:0400f000cc0200003e
:020000040000fa
:0400f400cc0200003a
:020000040000fa
:0400f800cc02000036
:020000040000fa
:0400fc00cc02000032
:020000040000fa
:04010000cc0200002d
:020000040000fa
:04010400cc02000029
:020000040000fa
:04010800cc02000025
:020000040000fa
:04010c00cc02000021
:020000040000fa
:04011000cc0200001d
:020000040000fa
:04011400cc02000019
:020000040000fa
:04011800cc02000015
:020000040000fa
:04011c00cc02000011
:020000040000fa
:04012000cc0200000d
:020000040000fa
:04012400cc02000009
:020000040000fa
:04012800cc02000005
:020000040000fa
:04012c00cc02000001
:020000040000fa
:04013000cc020000fd
:020000040000fa
:04013400cc020000f9
:020000040000fa
:04013800cc020000f5
:020000040000fa
:04013c00cc020000f1
:020000040000fa
:04014000cc020000ed
:020000040000fa
:04014400cc020000e9
:020000040000fa
:04014800cc020000e5
:020000040000fa
:04020800cc02000024
:020000040000fa
:04020c00cc02000020
:020000040000fa
:04021000cc0200001c
:020000040000fa
:04021400cc02000018
:020000040000fa
:04021800cc02000014
:020000040000fa
:04021c00cc02000010
:020000040000fa
:04022000cc0200000c
:020000040000fa
:04022400cc02000008
:020000040000fa
:04022800cc02000004
:020000040000fa
:04022c00cc02000000
:020000040000fa
:04023000cc020000fc
:020000040000fa
:04023400cc020000f8
:020000040000fa
:04023800cc020000f4
:020000040000fa
:04023c00cc020000f0
:020000040000fa
:04024000cc020000ec
:020000040000fa
:04024400cc020000e8
:020000040000fa
:04024800cc020000e4
:020000040000fa
:04024c00cc020000e0
:020000040000fa
:04025000cc020000dc
:020000040000fa
:04025400cc020000d8
:020000040000fa
:04025800cc020000d4
:020000040000fa
:04025c00cc020000d0
:020000040000fa
:04026000cc020000cc
:020000040000fa
:04026400cc020000c8
:020000040000fa
:04026800cc020000c4
:020000040000fa
:04026c00cc020000c0
:020000040000fa
:04027000cc020000bc
:020000040000fa
:04027400cc020000b8
:020000040000fa
:04027800cc020000b4
:020000040000fa
:04027c00cc020000b0
:020000040000fa
:04028000cc020000ac
:020000040000fa
:04028400cc020000a8
:020000040000fa
:04028800cc020000a4
:020000040000fa
:04028c00cc020000a0
:020000040000fa
:04029000cc0200009c
:020000040000fa
:04029400cc02000098
:020000040000fa
:04029800cc02000094
:020000040000fa
:04029c00cc02000090
:020000040000fa
:0402a000cc0200008c
:020000040000fa
:0402a400cc02000088
:020000040000fa
:0402a800cc02000084
:020000040000fa
:0402ac00cc02000080
:020000040000fa
:0402b000cc0200007c
:020000040000fa
:0402b400cc02000078
:020000040000fa
:0402b800cc02000074
:020000040000fa
:0402bc00cc02000070
:020000040000fa
:0402c000cc0200006c
:020000040000fa
:0402c400cc02000068
:020000040000fa
:0402c800cc02000064
:020000040000fa
:0402cc00cc02000060
:020000040000fa
:0402d000cc0200005c
:020000040000fa
:0402d400cc02000058
:020000040000fa
:0402d800cc02000054
:020000040000fa
:0402dc00cc02000050
:020000040000fa
:0402e000cc0200004c
:020000040000fa
:0402e400cc02000048
:020000040000fa
:0402e800cc02000044
:020000040000fa
:0402ec00cc02000040
:020000040000fa
:0402f000cc0200003c
:020000040000fa
:0402f400cc02000038
:020000040000fa
:0402f800cc02000034
:020000040000fa
:0402fc00cc02000030
:020000040000fa
:04030000cc0200002b
:020000040000fa
:04030400cc02000027
:020000040000fa
:04030800cc02000023
:020000040000fa
:04030c00cc0200001f
:020000040000fa
:04031000cc0200001b
:020000040000fa
:04031400cc02000017
:020000040000fa
:04031800cc02000013
:020000040000fa
:04031c00cc0200000f
:020000040000fa
:04032000cc0200000b
:020000040000fa
:04032400cc02000007
:020000040000fa
:04032800cc02000003
:020000040000fa
:04032c00cc020000ff
:020000040000fa
:04033000cc020000fb
:020000040000fa
:04033400cc020000f7
:020000040000fa
:04033800cc020000f3
:020000040000fa
:04033c00cc020000ef
:020000040000fa
:04034000cc020000eb
:020000040000fa
:04034400cc020000e7
:020000040000fa
:04034800cc020000e3
:020000040000fa
:100400006f8020000e7f22000e0188000000000097
:10041000000020000000e000020032000001200087
:1004200020028800140007005d0007000000e000c3
:1004300003003a00405f2000010020000200370066
:100440000000200001002000810f70000100320038
:1004500014000700000020000000e000020032004d
:100460000000020000000000d605020000000000ad
:100470000040da000000fe004440a9000001200016
:100480000000e0000300320000002000a00188000e
:100490004440a800000006008a1f78008b1f7800e7
:1004a0000000060091018800800478000000eb0045
:1004b0001a003700e284440032a0b4009905ba0063
:1004c000e284440032a0b4009906ba00e2844400f9
:1004d00032a0b4000006eb00476fde00fd07b2005b
:1004e000636ce10003003a00ebff07000000eb0043
:1004f0000a003700606ce10004003a00005deb0088
:100500008b05e900fdff3e00040037006168e10053
:10051000010032000086eb000b00070019c7ba008b
:100520001905ba000e04e00003003a000a00e000da
:10053000e0ff3a0000000600fe07b2009e018800be
:100540008a047800f5ff3700395dba008b05e900b1
:100550000c003200295dba008b05e900080032006a
:100560000c00e00003003a00e284440032a0b40032
:10057000f5ff370019ddba008b05e900faff3a00f4
:100580008904e800e184440032a0b40000000600c1
:1005900000000000000000000040da000000fe0043
:0405a0000000050052
:020000040000fa
:1005a4004e6f000074200000667500006e000000ad
:1005b400707200006f6a0000656300007400000040
:020000040000fa
:1005c4000000fa00213a8000f08f2f0000806000c4
:1005d400203a88000080eb0060198800c822ef00f0
:1005e400c862a800c022ef0017e2a900d0092000c9
:1005f400a010880017e2a8008a40a9000080fa0031
:10060400000006000200fa00004f78001602a8005d
:1006140000000000b0108000610060000000e000f5
:10062400fcff3a008a40a900c0072000901088000f
:100634000000000050048000640060000000e0003e
:10064400fcff32008a40a9001222ef0000000000e3
:1006540050048000640060000000e000fcff3200f1
:100664008a40a9001e00fb009010880000000000d2
:1006740050048000640060000000e000fcff3200d1
:100684008a40a9001642a80000000000b0108000b3
:10069400640060000000e000fcff3a000080fa0003
:1006a400000006000200fa000000eb00000f7800d2
:1006b4000000eb00000f7800020037005101070032
:1006c4001e0fe800100320009e007800808f500069
:1006d400faff340080c3b300caff070090c3b3001d
:1006e400c8ff070040c1b300c6ff070000c7b3003e
:1006f400c4ff0700e0c5b300c2ff0700c0c6b300d3
:10070400c0ff07000000eb00000f78000000eb00c2
:10071400000f7800020037003a0107001e0fe800be
:10072400700c20009e007800808f5000faff340087
:1007340080c3b300b3ff0700c0c0b300b1ff07001c
:1007440010c0b300afff07000080fa0000000600ed
:100754000400fa00204798003147980000c8b3000d
:10076400004f7800ae409000600020008008dd005b
:100774001e40780080c040003e40900000c0400011
:10078400004f78001e4078009eff07000080fa00aa
:10079400000006000200fa00004f78001602a800cc
:1007a40000000000b0108000610060000000e00064
:1007b400fcff3a008a40a900c0072000901088007e
:1007c4000000000050048000640060000000e000ad
:1007d400fcff32008a40a900000420009010880029
:1007e4000000000050048000640060000000e0008d
:1007f400fcff32008a40a9001e00fb009010880014
:100804000000000050048000640060000000e0006c
:10081400fcff32008a40a9001642a8000000000034
:10082400b0108000640060000000e000fcff3a00ab
:100834000080fa00000006001a00fa00200f980059
:1008440061579800420f98000000eb00000f7800f9
:10085400004080000000e00039003a0010408000b1
:1008640000407800804078006e509000b8ff070088
:1008740010408000e70f50000200340010002000f8
:100884000040880010408000e80f50000100340050
:100894000228ef001040800000407800804078007b
:1008a4006e509000aaff0700104080000000e00096
:1008b40004003a00e15320002e08900001000100da
:1008c400160037000000eb00100798000000eb0052
:1008d400100798000a0037001e00900000407800be
:1008e400804078006e50900099ff070000c2b3006a
:1008f400a8ff07001e0090000000e8001007980001
:10090400104080009e009000808f5000f2ff350060
:10091400e15320002e0890000100010010408000e7
:1009240000407800804078006e50900088ff0700f7
:10093400104080000000e8001040880043003700a9
:1009440000408000e10f500040003a002140800048
:100954004e089000808f50000200340010002000e8
:10096400204088000000eb00400798004e009000f3
:1009740000407800804078006e50900074ff0700bb
:1009840020408000ce08900000805000200798008e
:100994000000eb003007980018003700204080006a
:1009a400be009000808f500009003d002e00900092
:1009b400ae08900000804000904078006a01470033
:1009c4003e00900000004100014878000500370017
:1009d400ea0047003e0090000080400001c2b300de
:1009e400014878003e0090000000e80030079800bd
:1009f4002e0090000000e800200798003e009000c0
:100a0400e80f5000e5ff34004e00900000407800ed
:100a1400804078006e5090004dff0700e1532000a5
:100a24006a00470001000100204080000000e80047
:100a3400204088004e0890008000e900204080009b
:100a4400808f500001003d000028ef000000eb0003
:100a5400000f7800020037006a0007001e0fe8004c
:100a6400300620009e007800808f5000faff34008a
:100a74000080fa00000006000400fa001007980045
:100a84000000eb00000f78001602a8000000000030
:100a9400b0108000610060000000e000fcff3a003c
:100aa4008a40a900c00720009010880000000000c0
:100ab40050048000640060000000e000fcff32008d
:100ac4008a40a90015003700000c2000901088000f
:100ad4000000000050048000640060000000e0009a
:100ae400fcff32008a40a9001e0078009e0090009e
:100af40000804000104078000000fb009010880047
:100b04000000000050048000640060000000e00069
:100b1400fcff32008a40a9001e0fe8001e00780086
:100b24000000e8009e009000008040001040780023
:100b34000004e000e4ff3a00000420009010880064
:100b44000000000050048000640060000000e00029
:100b5400fcff32008a40a9001e0078009e0090002d
:100b640000804000104078000000fb0090108800d6
:100b74000000000050048000640060000000e000f9
:100b8400fcff32008a40a9001642a80000000000c1
:100b9400b0108000640060000000e000fcff3a0038
:100ba4000080fa00000006000000fa0084fe07003e
:100bb400bcfe07008040eb0010c0b300e4fe070059
:100bc400720020008040eb00202d28001aff07004f
:100bd4007200200011c0b300a02d280016ff0700ea
:040be400f4ff3700e3
:020000040000fa
:100be80000080000040000000000000004080000e5
:100bf80002000000020000000100000000000000e8
:020000040000fa
:0c0c08007f3e0900000000000000060014
:020000040000fa
:020000040001f9
:0457f8002ff9000085
:020000040000fa
:020000040001f9
:0457fc007f3f0000eb
:00000001FF
