:020000040000fa
:080000000002040000000000f2
:020000040000fa
:04000800cc02000026
:020000040000fa
:04000c00cc02000022
:020000040000fa
:04001000cc0200001e
:020000040000fa
:04001400cc0200001a
:020000040000fa
:04001800cc02000016
:020000040000fa
:04001c00cc02000012
:020000040000fa
:04002000cc0200000e
:020000040000fa
:04002400cc0200000a
:020000040000fa
:04002800cc02000006
:020000040000fa
:04002c00cc02000002
:020000040000fa
:04003000cc020000fe
:020000040000fa
:04003400cc020000fa
:020000040000fa
:04003800cc020000f6
:020000040000fa
:04003c00cc020000f2
:020000040000fa
:04004000cc020000ee
:020000040000fa
:04004400cc020000ea
:020000040000fa
:04004800cc020000e6
:020000040000fa
:04004c00cc020000e2
:020000040000fa
:04005000cc020000de
:020000040000fa
:04005400cc020000da
:020000040000fa
:04005800cc020000d6
:020000040000fa
:04005c00cc020000d2
:020000040000fa
:04006000cc020000ce
:020000040000fa
:04006400cc020000ca
:020000040000fa
:04006800cc020000c6
:020000040000fa
:04006c00cc020000c2
:020000040000fa
:04007000cc020000be
:020000040000fa
:04007400cc020000ba
:020000040000fa
:04007800cc020000b6
:020000040000fa
:04007c00cc020000b2
:020000040000fa
:04008000cc020000ae
:020000040000fa
:04008400cc020000aa
:020000040000fa
:04008800cc020000a6
:020000040000fa
:04008c00cc020000a2
:020000040000fa
:04009000cc0200009e
:020000040000fa
:04009400cc0200009a
:020000040000fa
:04009800cc02000096
:020000040000fa
:04009c00cc02000092
:020000040000fa
:0400a000cc0200008e
:020000040000fa
:0400a400cc0200008a
:020000040000fa
:0400a800cc02000086
:020000040000fa
:0400ac00cc02000082
:020000040000fa
:0400b000cc0200007e
:020000040000fa
:0400b400cc0200007a
:020000040000fa
:0400b800cc02000076
:020000040000fa
:0400bc00cc02000072
:020000040000fa
:0400c000cc0200006e
:020000040000fa
:0400c400cc0200006a
:020000040000fa
:0400c800cc02000066
:020000040000fa
:0400cc00cc02000062
:020000040000fa
:0400d000cc0200005e
:020000040000fa
:0400d400cc0200005a
:020000040000fa
:0400d800cc02000056
:020000040000fa
:0400dc00cc02000052
:020000040000fa
:0400e000cc0200004e
:020000040000fa
:0400e400cc0200004a
:020000040000fa
:0400e800cc02000046
:020000040000fa
:0400ec00cc02000042
:020000040000fa
:0400f000cc0200003e
:020000040000fa
:0400f400cc0200003a
:020000040000fa
:0400f800cc02000036
:020000040000fa
:0400fc00cc02000032
:020000040000fa
:04010000cc0200002d
:020000040000fa
:04010400cc02000029
:020000040000fa
:04010800cc02000025
:020000040000fa
:04010c00cc02000021
:020000040000fa
:04011000cc0200001d
:020000040000fa
:04011400cc02000019
:020000040000fa
:04011800cc02000015
:020000040000fa
:04011c00cc02000011
:020000040000fa
:04012000cc0200000d
:020000040000fa
:04012400cc02000009
:020000040000fa
:04012800cc02000005
:020000040000fa
:04012c00cc02000001
:020000040000fa
:04013000cc020000fd
:020000040000fa
:04013400cc020000f9
:020000040000fa
:04013800cc020000f5
:020000040000fa
:04013c00cc020000f1
:020000040000fa
:04014000cc020000ed
:020000040000fa
:04014400cc020000e9
:020000040000fa
:04014800cc020000e5
:020000040000fa
:04020800cc02000024
:020000040000fa
:04020c00cc02000020
:020000040000fa
:04021000cc0200001c
:020000040000fa
:04021400cc02000018
:020000040000fa
:04021800cc02000014
:020000040000fa
:04021c00cc02000010
:020000040000fa
:04022000cc0200000c
:020000040000fa
:04022400cc02000008
:020000040000fa
:04022800cc02000004
:020000040000fa
:04022c00cc02000000
:020000040000fa
:04023000cc020000fc
:020000040000fa
:04023400cc020000f8
:020000040000fa
:04023800cc020000f4
:020000040000fa
:04023c00cc020000f0
:020000040000fa
:04024000cc020000ec
:020000040000fa
:04024400cc020000e8
:020000040000fa
:04024800cc020000e4
:020000040000fa
:04024c00cc020000e0
:020000040000fa
:04025000cc020000dc
:020000040000fa
:04025400cc020000d8
:020000040000fa
:04025800cc020000d4
:020000040000fa
:04025c00cc020000d0
:020000040000fa
:04026000cc020000cc
:020000040000fa
:04026400cc020000c8
:020000040000fa
:04026800cc020000c4
:020000040000fa
:04026c00cc020000c0
:020000040000fa
:04027000cc020000bc
:020000040000fa
:04027400cc020000b8
:020000040000fa
:04027800cc020000b4
:020000040000fa
:04027c00cc020000b0
:020000040000fa
:04028000cc020000ac
:020000040000fa
:04028400cc020000a8
:020000040000fa
:04028800cc020000a4
:020000040000fa
:04028c00cc020000a0
:020000040000fa
:04029000cc0200009c
:020000040000fa
:04029400cc02000098
:020000040000fa
:04029800cc02000094
:020000040000fa
:04029c00cc02000090
:020000040000fa
:0402a000cc0200008c
:020000040000fa
:0402a400cc02000088
:020000040000fa
:0402a800cc02000084
:020000040000fa
:0402ac00cc02000080
:020000040000fa
:0402b000cc0200007c
:020000040000fa
:0402b400cc02000078
:020000040000fa
:0402b800cc02000074
:020000040000fa
:0402bc00cc02000070
:020000040000fa
:0402c000cc0200006c
:020000040000fa
:0402c400cc02000068
:020000040000fa
:0402c800cc02000064
:020000040000fa
:0402cc00cc02000060
:020000040000fa
:0402d000cc0200005c
:020000040000fa
:0402d400cc02000058
:020000040000fa
:0402d800cc02000054
:020000040000fa
:0402dc00cc02000050
:020000040000fa
:0402e000cc0200004c
:020000040000fa
:0402e400cc02000048
:020000040000fa
:0402e800cc02000044
:020000040000fa
:0402ec00cc02000040
:020000040000fa
:0402f000cc0200003c
:020000040000fa
:0402f400cc02000038
:020000040000fa
:0402f800cc02000034
:020000040000fa
:0402fc00cc02000030
:020000040000fa
:04030000cc0200002b
:020000040000fa
:04030400cc02000027
:020000040000fa
:04030800cc02000023
:020000040000fa
:04030c00cc0200001f
:020000040000fa
:04031000cc0200001b
:020000040000fa
:04031400cc02000017
:020000040000fa
:04031800cc02000013
:020000040000fa
:04031c00cc0200000f
:020000040000fa
:04032000cc0200000b
:020000040000fa
:04032400cc02000007
:020000040000fa
:04032800cc02000003
:020000040000fa
:04032c00cc020000ff
:020000040000fa
:04033000cc020000fb
:020000040000fa
:04033400cc020000f7
:020000040000fa
:04033800cc020000f3
:020000040000fa
:04033c00cc020000ef
:020000040000fa
:04034000cc020000eb
:020000040000fa
:04034400cc020000e7
:020000040000fa
:04034800cc020000e3
:020000040000fa
:100400000f8020000e7f22000e01880000000000f7
:10041000000020000000e000020032000001200087
:1004200020028800140007005d0007000000e000c3
:1004300003003a0000002000010020000200370005
:100440000000200001002000810f70000100320038
:1004500014000700000020000000e000020032004d
:1004600000000200000000001c0402000000000068
:100470000040da000000fe004440a9000000200017
:100480000000e0000300320000002000a00188000e
:100490004440a800000006008a1f78008b1f7800e7
:1004a0000000060091018800800478000000eb0045
:1004b0001a003700e284440032a0b4009905ba0063
:1004c000e284440032a0b4009906ba00e2844400f9
:1004d00032a0b4000006eb00476fde00fd07b2005b
:1004e000636ce10003003a00ebff07000000eb0043
:1004f0000a003700606ce10004003a00005deb0088
:100500008b05e900fdff3e00040037006168e10053
:10051000010032000086eb000b00070019c7ba008b
:100520001905ba000e04e00003003a000a00e000da
:10053000e0ff3a0000000600fe07b2009e018800be
:100540008a047800f5ff3700395dba008b05e900b1
:100550000c003200295dba008b05e900080032006a
:100560000c00e00003003a00e284440032a0b40032
:10057000f5ff370019ddba008b05e900faff3a00f4
:100580008904e800e184440032a0b40000000600c1
:1005900000000000000000000040da000000fe0043
:0405a0000000050052
:020000040000fa
:1005a4000000fa00213a8000f08f2f0000806000e4
:1005b400203a88000080eb0060198800e0ff2f00db
:1005c400001688000080fa00000006000200fa000d
:1005d400000f7800020037007e3e09000000000092
:1005e40010c0b3009e0078000100e00001003c0050
:1005f4000040eb001e0fe9000004e000f6ff3a00a3
:100604000080fa00000006000000fa00d009200073
:10061400a01088008a40a90017e2a80080022000e8
:10062400eaff07006135200080032000010001007b
:100634006135200090032000010001006135200095
:100644004001200001000100613520000007200066
:100654000100010061352000e005200001000100d7
:1006640061352000c006200001000100800c20003c
:10067400d6ff07006135200080032000010001003f
:1006840061352000c0002000010001006135200018
:10069400100020000100010020002000cbff070013
:1006a4000080fa00000006000200fa00004f780003
:1006b4008a40a9001602a80020002000c3ff0700fa
:1006c40000000000b0108000610060000000e00045
:1006d400fcff3a008a40a900c0072000901088005f
:1006e40020002000b9ff0700000000005004800033
:1006f400640060000000e000fcff32008a40a900b2
:100704001222ef0020002000b0ff070000000000cc
:1007140050048000640060000000e000fcff320030
:100724008a40a9001e00fb009010880020002000d1
:10073400a6ff070000000000500480006400600071
:100744000000e000fcff32008a40a9001642a80025
:1007540000000000b0108000640060000000e000b1
:10076400fcff3a000080fa00000006000200fa00d4
:10077400004f78008a40a9001602a800200020003b
:1007840092ff070000000000b010800061006000cc
:100794000000e000fcff3a008a40a900c0072000e6
:1007a400901088002000200088ff0700000000004f
:1007b40050048000640060000000e000fcff320090
:1007c4008a40a90000042000901088002000200026
:1007d4007eff0700000000005004800064006000f9
:1007e4000000e000fcff32008a40a9001e00fb006c
:1007f400901088002000200074ff07000000000013
:1008040050048000640060000000e000fcff32003f
:100814008a40a9001642a80000000000b010800021
:10082400640060000000e000fcff3a000080fa0071
:10083400000006000400fa00000f78000e80e800b3
:100844000108780056ff07006fff070010c6b300c9
:08085400c6ff0700ffff37009b
:00000001FF
